{
  "_format": "hh3-artifact-1",
  "contractName": "EmberVault",
  "sourceName": "contracts/contracts/EmberVault.sol",
  "abi": [
    {
      "anonymous": false,
      "inputs": [
        {
          "indexed": true,
          "internalType": "address",
          "name": "user",
          "type": "address"
        },
        {
          "indexed": false,
          "internalType": "uint256",
          "name": "streakDays",
          "type": "uint256"
        },
        {
          "indexed": false,
          "internalType": "uint8",
          "name": "tier",
          "type": "uint8"
        }
      ],
      "name": "Checkpoint",
      "type": "event"
    },
    {
      "anonymous": false,
      "inputs": [
        {
          "indexed": true,
          "internalType": "address",
          "name": "user",
          "type": "address"
        },
        {
          "indexed": false,
          "internalType": "string",
          "name": "ipfsCid",
          "type": "string"
        }
      ],
      "name": "PFPLinked",
      "type": "event"
    },
    {
      "anonymous": false,
      "inputs": [
        {
          "indexed": true,
          "internalType": "address",
          "name": "user",
          "type": "address"
        },
        {
          "indexed": false,
          "internalType": "uint256",
          "name": "amount",
          "type": "uint256"
        }
      ],
      "name": "Staked",
      "type": "event"
    },
    {
      "anonymous": false,
      "inputs": [
        {
          "indexed": true,
          "internalType": "address",
          "name": "user",
          "type": "address"
        },
        {
          "indexed": false,
          "internalType": "uint256",
          "name": "amount",
          "type": "uint256"
        },
        {
          "indexed": false,
          "internalType": "uint256",
          "name": "yieldPaid",
          "type": "uint256"
        },
        {
          "indexed": false,
          "internalType": "bool",
          "name": "streakBroken",
          "type": "bool"
        }
      ],
      "name": "Withdrawn",
      "type": "event"
    },
    {
      "inputs": [],
      "name": "checkpoint",
      "outputs": [],
      "stateMutability": "nonpayable",
      "type": "function"
    },
    {
      "inputs": [
        {
          "internalType": "address",
          "name": "user",
          "type": "address"
        }
      ],
      "name": "getAPY",
      "outputs": [
        {
          "internalType": "uint256",
          "name": "",
          "type": "uint256"
        }
      ],
      "stateMutability": "view",
      "type": "function"
    },
    {
      "inputs": [
        {
          "internalType": "address",
          "name": "user",
          "type": "address"
        }
      ],
      "name": "getBalance",
      "outputs": [
        {
          "internalType": "uint256",
          "name": "",
          "type": "uint256"
        }
      ],
      "stateMutability": "view",
      "type": "function"
    },
    {
      "inputs": [
        {
          "internalType": "address",
          "name": "user",
          "type": "address"
        }
      ],
      "name": "getPFP",
      "outputs": [
        {
          "internalType": "string",
          "name": "",
          "type": "string"
        }
      ],
      "stateMutability": "view",
      "type": "function"
    },
    {
      "inputs": [
        {
          "internalType": "address",
          "name": "user",
          "type": "address"
        }
      ],
      "name": "getStreakDays",
      "outputs": [
        {
          "internalType": "uint256",
          "name": "",
          "type": "uint256"
        }
      ],
      "stateMutability": "view",
      "type": "function"
    },
    {
      "inputs": [
        {
          "internalType": "address",
          "name": "user",
          "type": "address"
        }
      ],
      "name": "getTier",
      "outputs": [
        {
          "internalType": "uint8",
          "name": "",
          "type": "uint8"
        }
      ],
      "stateMutability": "view",
      "type": "function"
    },
    {
      "inputs": [
        {
          "internalType": "string",
          "name": "cid",
          "type": "string"
        }
      ],
      "name": "linkPFP",
      "outputs": [],
      "stateMutability": "nonpayable",
      "type": "function"
    },
    {
      "inputs": [],
      "name": "stake",
      "outputs": [],
      "stateMutability": "payable",
      "type": "function"
    },
    {
      "inputs": [
        {
          "internalType": "uint256",
          "name": "amountWei",
          "type": "uint256"
        }
      ],
      "name": "withdraw",
      "outputs": [],
      "stateMutability": "nonpayable",
      "type": "function"
    },
    {
      "stateMutability": "payable",
      "type": "receive"
    }
  ],
  "bytecode": "0x608060405234801561001057600080fd5b50610b27806100206000396000f3fe60806040526004361061008a5760003560e01c8063b45aae5211610059578063b45aae5214610132578063c2c4c5c114610164578063c4f9870b14610179578063d0ed922b14610199578063f8b2cb4f146101c657600080fd5b80632e1a7d4d1461009e5780633a4b66f1146100be5780636735f80e146100c6578063b375355e146100e657600080fd5b36610099576100976101fc565b005b600080fd5b3480156100aa57600080fd5b506100976100b93660046107bd565b6102e2565b6100976101fc565b3480156100d257600080fd5b506100976100e13660046107d6565b610482565b3480156100f257600080fd5b5061011f610101366004610848565b6001600160a01b031660009081526020819052604090206002015490565b6040519081526020015b60405180910390f35b34801561013e57600080fd5b5061015261014d366004610848565b6104e7565b60405160ff9091168152602001610129565b34801561017057600080fd5b5061009761053f565b34801561018557600080fd5b5061011f610194366004610848565b61063e565b3480156101a557600080fd5b506101b96101b4366004610848565b610695565b60405161012991906108be565b3480156101d257600080fd5b5061011f6101e1366004610848565b6001600160a01b031660009081526020819052604090205490565b6000341161023c5760405162461bcd60e51b81526020600482015260086024820152670616d6f756e743d360c41b60448201526064015b60405180910390fd5b33600090815260208190526040812080549091036102695742600182015560006002820181905560038201555b3481600001600082825461027d91906108e7565b90915550506040805180820190915260058152647374616b6560d81b60208201526102a9903334610744565b60405134815233907f9e71bc8eea02a63969f509818f2dafb9254532904319f9dbda79b67bd34a5f3d906020015b60405180910390a250565b336000908152602081905260409020816103295760405162461bcd60e51b81526020600482015260086024820152670616d6f756e743d360c41b6044820152606401610233565b80548211156103695760405162461bcd60e51b815260206004820152600c60248201526b1a5b9cdd59999a58da595b9d60a21b6044820152606401610233565b8181600001600082825461037d9190610900565b909155506001905060006103944262093a806108e7565b6003840155426001840155600060028401819055336103b383876108e7565b604051600081818185875af1925050503d80600081146103ef576040519150601f19603f3d011682016040523d82523d6000602084013e6103f4565b606091505b50509050806104375760405162461bcd60e51b815260206004820152600f60248201526e1d1c985b9cd9995c8819985a5b1959608a1b6044820152606401610233565b604080518681526020810184905284151581830152905133917f217c645ce2c5eb2497bdb6d9400205f1253e8607b2aea960637fa705f2130401919081900360600190a25050505050565b33600090815260208190526040902060040161049f8284836109b1565b50336001600160a01b03167fc4705fcf0247ab4b7ed112166cf2f0c99b1406fc9314ba28b1590df7445ef50683836040516104db929190610a72565b60405180910390a25050565b6001600160a01b03811660009081526020819052604081206002015460b481106105145750600392915050565b605a81106105255750600292915050565b601e81106105365750600192915050565b50600092915050565b336000908152602081905260408120805490910361055a5750565b80600301544210156105b95742600182015560006002820181905533907f0b6e1266a0a28dc779c8ba52dd440e90f5fa74c2f247dc979f53a4a2fcabe0fa906105a2836104e7565b6040805192835260ff9091166020830152016102d7565b6000620151808260010154426105cf9190610900565b6105d99190610aa1565b9050816002015481146105ee57600282018190555b336001600160a01b03167f0b6e1266a0a28dc779c8ba52dd440e90f5fa74c2f247dc979f53a4a2fcabe0fa8360020154610627336104e7565b6040805192835260ff9091166020830152016104db565b60008061064a836104e7565b90508060ff1660030361066157506103e892915050565b8060ff1660020361067657506102ee92915050565b8060ff1660010361068b575061025892915050565b506101f492915050565b6001600160a01b03811660009081526020819052604090206004018054606091906106bf90610929565b80601f01602080910402602001604051908101604052809291908181526020018280546106eb90610929565b80156107385780601f1061070d57610100808354040283529160200191610738565b820191906000526020600020905b81548152906001019060200180831161071b57829003601f168201915b50505050509050919050565b61078b83838360405160240161075c93929190610ac3565b60408051601f198184030181529190526020810180516001600160e01b0316630d26b92560e01b179052610790565b505050565b6107998161079c565b50565b60006a636f6e736f6c652e6c6f679050600080835160208501845afa505050565b6000602082840312156107cf57600080fd5b5035919050565b600080602083850312156107e957600080fd5b823567ffffffffffffffff8082111561080157600080fd5b818501915085601f83011261081557600080fd5b81358181111561082457600080fd5b86602082850101111561083657600080fd5b60209290920196919550909350505050565b60006020828403121561085a57600080fd5b81356001600160a01b038116811461087157600080fd5b9392505050565b6000815180845260005b8181101561089e57602081850181015186830182015201610882565b506000602082860101526020601f19601f83011685010191505092915050565b6020815260006108716020830184610878565b634e487b7160e01b600052601160045260246000fd5b808201808211156108fa576108fa6108d1565b92915050565b818103818111156108fa576108fa6108d1565b634e487b7160e01b600052604160045260246000fd5b600181811c9082168061093d57607f821691505b60208210810361095d57634e487b7160e01b600052602260045260246000fd5b50919050565b601f82111561078b57600081815260208120601f850160051c8101602086101561098a5750805b601f850160051c820191505b818110156109a957828155600101610996565b505050505050565b67ffffffffffffffff8311156109c9576109c9610913565b6109dd836109d78354610929565b83610963565b6000601f841160018114610a1157600085156109f95750838201355b600019600387901b1c1916600186901b178355610a6b565b600083815260209020601f19861690835b82811015610a425786850135825560209485019460019092019101610a22565b5086821015610a5f5760001960f88860031b161c19848701351681555b505060018560011b0183555b5050505050565b60208152816020820152818360408301376000818301604090810191909152601f909201601f19160101919050565b600082610abe57634e487b7160e01b600052601260045260246000fd5b500490565b606081526000610ad66060830186610878565b6001600160a01b03949094166020830152506040015291905056fea2646970667358221220db0a3cafbfea416d25d95538da6eb0758c76fec3353da74f94f2c2d3443fcf2064736f6c63430008130033",
  "linkReferences": {},
  "deployedLinkReferences": {},
  "immutableReferences": {},
  "inputSourceName": "project/contracts/contracts/EmberVault.sol",
  "buildInfoId": "solc-0_8_19-ab8200769595691e8356ab746e3076bca52471da"
}