{
  "_format": "hh3-artifact-1",
  "contractName": "KizunaPool",
  "sourceName": "contracts/contracts/KizunaPool.sol",
  "abi": [
    {
      "anonymous": false,
      "inputs": [
        {
          "indexed": true,
          "internalType": "uint256",
          "name": "poolId",
          "type": "uint256"
        },
        {
          "indexed": true,
          "internalType": "address",
          "name": "member",
          "type": "address"
        },
        {
          "indexed": false,
          "internalType": "uint256",
          "name": "dayIndex",
          "type": "uint256"
        }
      ],
      "name": "CheckedIn",
      "type": "event"
    },
    {
      "anonymous": false,
      "inputs": [
        {
          "indexed": true,
          "internalType": "uint256",
          "name": "poolId",
          "type": "uint256"
        },
        {
          "indexed": true,
          "internalType": "address",
          "name": "member",
          "type": "address"
        }
      ],
      "name": "Joined",
      "type": "event"
    },
    {
      "anonymous": false,
      "inputs": [
        {
          "indexed": true,
          "internalType": "uint256",
          "name": "poolId",
          "type": "uint256"
        },
        {
          "indexed": false,
          "internalType": "string",
          "name": "name",
          "type": "string"
        },
        {
          "indexed": false,
          "internalType": "uint256",
          "name": "stakeAmount",
          "type": "uint256"
        },
        {
          "indexed": true,
          "internalType": "address",
          "name": "creator",
          "type": "address"
        }
      ],
      "name": "PoolCreated",
      "type": "event"
    },
    {
      "anonymous": false,
      "inputs": [
        {
          "indexed": true,
          "internalType": "uint256",
          "name": "poolId",
          "type": "uint256"
        },
        {
          "indexed": false,
          "internalType": "bool",
          "name": "yieldHitApplied",
          "type": "bool"
        }
      ],
      "name": "RewardsDistributed",
      "type": "event"
    },
    {
      "inputs": [
        {
          "internalType": "uint256",
          "name": "poolId",
          "type": "uint256"
        }
      ],
      "name": "checkIn",
      "outputs": [],
      "stateMutability": "nonpayable",
      "type": "function"
    },
    {
      "inputs": [
        {
          "internalType": "string",
          "name": "name",
          "type": "string"
        },
        {
          "internalType": "uint256",
          "name": "stakeAmount",
          "type": "uint256"
        },
        {
          "internalType": "address[]",
          "name": "initialMembers",
          "type": "address[]"
        }
      ],
      "name": "createPool",
      "outputs": [
        {
          "internalType": "uint256",
          "name": "",
          "type": "uint256"
        }
      ],
      "stateMutability": "nonpayable",
      "type": "function"
    },
    {
      "inputs": [
        {
          "internalType": "uint256",
          "name": "poolId",
          "type": "uint256"
        }
      ],
      "name": "distributeRewards",
      "outputs": [],
      "stateMutability": "nonpayable",
      "type": "function"
    },
    {
      "inputs": [
        {
          "internalType": "uint256",
          "name": "poolId",
          "type": "uint256"
        }
      ],
      "name": "getMembers",
      "outputs": [
        {
          "internalType": "address[]",
          "name": "",
          "type": "address[]"
        }
      ],
      "stateMutability": "view",
      "type": "function"
    },
    {
      "inputs": [
        {
          "internalType": "uint256",
          "name": "",
          "type": "uint256"
        },
        {
          "internalType": "address",
          "name": "",
          "type": "address"
        }
      ],
      "name": "isMember",
      "outputs": [
        {
          "internalType": "bool",
          "name": "",
          "type": "bool"
        }
      ],
      "stateMutability": "view",
      "type": "function"
    },
    {
      "inputs": [
        {
          "internalType": "uint256",
          "name": "poolId",
          "type": "uint256"
        }
      ],
      "name": "joinPool",
      "outputs": [],
      "stateMutability": "payable",
      "type": "function"
    },
    {
      "inputs": [
        {
          "internalType": "uint256",
          "name": "",
          "type": "uint256"
        },
        {
          "internalType": "address",
          "name": "",
          "type": "address"
        }
      ],
      "name": "lastCheckinDay",
      "outputs": [
        {
          "internalType": "uint256",
          "name": "",
          "type": "uint256"
        }
      ],
      "stateMutability": "view",
      "type": "function"
    },
    {
      "inputs": [],
      "name": "nextPoolId",
      "outputs": [
        {
          "internalType": "uint256",
          "name": "",
          "type": "uint256"
        }
      ],
      "stateMutability": "view",
      "type": "function"
    },
    {
      "inputs": [
        {
          "internalType": "uint256",
          "name": "",
          "type": "uint256"
        }
      ],
      "name": "pools",
      "outputs": [
        {
          "internalType": "string",
          "name": "name",
          "type": "string"
        },
        {
          "internalType": "uint256",
          "name": "stakeAmount",
          "type": "uint256"
        },
        {
          "internalType": "address",
          "name": "creator",
          "type": "address"
        },
        {
          "internalType": "uint256",
          "name": "startTs",
          "type": "uint256"
        },
        {
          "internalType": "uint256",
          "name": "periodDays",
          "type": "uint256"
        },
        {
          "internalType": "bool",
          "name": "active",
          "type": "bool"
        }
      ],
      "stateMutability": "view",
      "type": "function"
    }
  ],
  "bytecode": "0x6080604052600160005534801561001557600080fd5b50610ded806100256000396000f3fe6080604052600436106100865760003560e01c80637d9e10f5116100595780637d9e10f5146101215780638a6671cd1461016c578063ac4afa381461018c578063c477ecab146101be578063e95a644f146101eb57600080fd5b8063045d94711461008b57806318e56131146100d657806334e7a19f146100ec57806359974e3814610101575b600080fd5b34801561009757600080fd5b506100c36100a636600461095b565b600360209081526000928352604080842090915290825290205481565b6040519081526020015b60405180910390f35b3480156100e257600080fd5b506100c360005481565b6100ff6100fa366004610987565b61020b565b005b34801561010d57600080fd5b506100ff61011c366004610987565b610315565b34801561012d57600080fd5b5061015c61013c36600461095b565b600260209081526000928352604080842090915290825290205460ff1681565b60405190151581526020016100cd565b34801561017857600080fd5b506100c36101873660046109a0565b61048b565b34801561019857600080fd5b506101ac6101a7366004610987565b610614565b6040516100cd96959493929190610a72565b3480156101ca57600080fd5b506101de6101d9366004610987565b6106de565b6040516100cd9190610afa565b3480156101f757600080fd5b506100ff610206366004610987565b61074d565b6000818152600160205260409020600681015460ff166102465760405162461bcd60e51b815260040161023d90610b47565b60405180910390fd5b600082815260026020908152604080832033845290915290205460ff161561029a5760405162461bcd60e51b8152602060048201526007602482015266616c726561647960c81b604482015260640161023d565b806001015434146102da5760405162461bcd60e51b815260206004820152600a60248201526918985917d85b5bdd5b9d60b21b604482015260640161023d565b6102e482336108b1565b604051339083907fc0081eeafa0d002abcd7d58d84b6e688d1526b9c3d915a282212ba08c49a17a790600090a35050565b6000818152600160205260409020600681015460ff166103475760405162461bcd60e51b815260040161023d90610b47565b60028101546001600160a01b031633146103925760405162461bcd60e51b815260206004820152600c60248201526b37b7363cafb1b932b0ba37b960a11b604482015260640161023d565b600080620151808360040154426103a99190610b7f565b6103b39190610b98565b6103be906001610bba565b905060005b60038401548110156104485760008460030182815481106103e6576103e6610bcd565b60009182526020808320909101548883526003825260408084206001600160a01b03909216808552919092529120549091508390610425906001610bba565b1015610435576001935050610448565b508061044081610be3565b9150506103c3565b50837fa8a73c4e36547e997d3a0718e82c0c1de4e2359d5520d9367ba36e9214ee440b8360405161047d911515815260200190565b60405180910390a250505050565b60008084116104c65760405162461bcd60e51b815260206004820152600760248201526607374616b653d360cc1b604482015260640161023d565b6000805481806104d583610be3565b909155506000818152600160205260409020909150806104f6888a83610c9b565b5060018082018790556002820180546001600160a01b03191633908117909155426004840155601e600584015560068301805460ff191690921790915561053e9083906108b1565b60005b848110156105c257600086868381811061055d5761055d610bcd565b90506020020160208101906105729190610d5c565b6001600160a01b0316146105b0576105b08387878481811061059657610596610bcd565b90506020020160208101906105ab9190610d5c565b6108b1565b806105ba81610be3565b915050610541565b50336001600160a01b0316827f87d5629b041f77031582931d81a784d7d99acf00b21d0bee6b6d88f219ca68af8a8a8a60405161060193929190610d7e565b60405180910390a3509695505050505050565b60016020526000908152604090208054819061062f90610c12565b80601f016020809104026020016040519081016040528092919081815260200182805461065b90610c12565b80156106a85780601f1061067d576101008083540402835291602001916106a8565b820191906000526020600020905b81548152906001019060200180831161068b57829003601f168201915b5050506001840154600285015460048601546005870154600690970154959692956001600160a01b039092169450925060ff1686565b60008181526001602090815260409182902060030180548351818402810184019094528084526060939283018282801561074157602002820191906000526020600020905b81546001600160a01b03168152600190910190602001808311610723575b50505050509050919050565b6000818152600160205260409020600681015460ff1661077f5760405162461bcd60e51b815260040161023d90610b47565b600082815260026020908152604080832033845290915290205460ff166107d55760405162461bcd60e51b815260206004820152600a6024820152693737ba2fb6b2b6b132b960b11b604482015260640161023d565b6000620151808260040154426107eb9190610b7f565b6107f59190610b98565b610800906001610bba565b600084815260036020908152604080832033845290915290205490915081900361085c5760405162461bcd60e51b815260206004820152600d60248201526c616c72656164795f746f64617960981b604482015260640161023d565b600083815260036020908152604080832033808552908352928190208490555183815285917f6b2e4e52ba8b5cff4a90d18b1efd0f88c74ed562b5dd3b13f01a1759699b2db2910160405180910390a3505050565b60008281526002602090815260408083206001600160a01b038516845290915290205460ff16156108e0575050565b60008281526002602090815260408083206001600160a01b03909416808452938252808320805460ff191660019081179091559483528482528220600301805494850181558252902090910180546001600160a01b0319169091179055565b80356001600160a01b038116811461095657600080fd5b919050565b6000806040838503121561096e57600080fd5b8235915061097e6020840161093f565b90509250929050565b60006020828403121561099957600080fd5b5035919050565b6000806000806000606086880312156109b857600080fd5b853567ffffffffffffffff808211156109d057600080fd5b818801915088601f8301126109e457600080fd5b8135818111156109f357600080fd5b896020828501011115610a0557600080fd5b60209283019750955090870135935060408701359080821115610a2757600080fd5b818801915088601f830112610a3b57600080fd5b813581811115610a4a57600080fd5b8960208260051b8501011115610a5f57600080fd5b9699959850939650602001949392505050565b60c08152600087518060c084015260005b81811015610aa0576020818b0181015160e0868401015201610a83565b50600060e0828501015260e0601f19601f830116840101915050866020830152610ad560408301876001600160a01b03169052565b846060830152836080830152610aef60a083018415159052565b979650505050505050565b6020808252825182820181905260009190848201906040850190845b81811015610b3b5783516001600160a01b031683529284019291840191600101610b16565b50909695505050505050565b602080825260089082015267696e61637469766560c01b604082015260600190565b634e487b7160e01b600052601160045260246000fd5b81810381811115610b9257610b92610b69565b92915050565b600082610bb557634e487b7160e01b600052601260045260246000fd5b500490565b80820180821115610b9257610b92610b69565b634e487b7160e01b600052603260045260246000fd5b600060018201610bf557610bf5610b69565b5060010190565b634e487b7160e01b600052604160045260246000fd5b600181811c90821680610c2657607f821691505b602082108103610c4657634e487b7160e01b600052602260045260246000fd5b50919050565b601f821115610c9657600081815260208120601f850160051c81016020861015610c735750805b601f850160051c820191505b81811015610c9257828155600101610c7f565b5050505b505050565b67ffffffffffffffff831115610cb357610cb3610bfc565b610cc783610cc18354610c12565b83610c4c565b6000601f841160018114610cfb5760008515610ce35750838201355b600019600387901b1c1916600186901b178355610d55565b600083815260209020601f19861690835b82811015610d2c5786850135825560209485019460019092019101610d0c565b5086821015610d495760001960f88860031b161c19848701351681555b505060018560011b0183555b5050505050565b600060208284031215610d6e57600080fd5b610d778261093f565b9392505050565b604081528260408201528284606083013760006060848301015260006060601f19601f860116830101905082602083015294935050505056fea2646970667358221220e2c09044891dae6ccfe38b5b735a58d5f0baeef1d7584098d5c05110d398467964736f6c63430008130033",
  "linkReferences": {},
  "deployedLinkReferences": {},
  "immutableReferences": {},
  "inputSourceName": "project/contracts/contracts/KizunaPool.sol",
  "buildInfoId": "solc-0_8_19-e50b360530c3bfe9106e7a69d91f0d3ce0f0cf12"
}