{"project/contracts/contracts/EmberVault.sol":{"EmberVault":{"abi":[{"anonymous":false,"inputs":[{"indexed":true,"internalType":"address","name":"user","type":"address"},{"indexed":false,"internalType":"uint256","name":"streakDays","type":"uint256"},{"indexed":false,"internalType":"uint8","name":"tier","type":"uint8"}],"name":"Checkpoint","type":"event"},{"anonymous":false,"inputs":[{"indexed":true,"internalType":"address","name":"user","type":"address"},{"indexed":false,"internalType":"string","name":"ipfsCid","type":"string"}],"name":"PFPLinked","type":"event"},{"anonymous":false,"inputs":[{"indexed":true,"internalType":"address","name":"user","type":"address"},{"indexed":false,"internalType":"uint256","name":"amount","type":"uint256"}],"name":"Staked","type":"event"},{"anonymous":false,"inputs":[{"indexed":true,"internalType":"address","name":"user","type":"address"},{"indexed":false,"internalType":"uint256","name":"amount","type":"uint256"},{"indexed":false,"internalType":"uint256","name":"yieldPaid","type":"uint256"},{"indexed":false,"internalType":"bool","name":"streakBroken","type":"bool"}],"name":"Withdrawn","type":"event"},{"inputs":[],"name":"checkpoint","outputs":[],"stateMutability":"nonpayable","type":"function"},{"inputs":[{"internalType":"address","name":"user","type":"address"}],"name":"getAPY","outputs":[{"internalType":"uint256","name":"","type":"uint256"}],"stateMutability":"view","type":"function"},{"inputs":[{"internalType":"address","name":"user","type":"address"}],"name":"getBalance","outputs":[{"internalType":"uint256","name":"","type":"uint256"}],"stateMutability":"view","type":"function"},{"inputs":[{"internalType":"address","name":"user","type":"address"}],"name":"getPFP","outputs":[{"internalType":"string","name":"","type":"string"}],"stateMutability":"view","type":"function"},{"inputs":[{"internalType":"address","name":"user","type":"address"}],"name":"getStreakDays","outputs":[{"internalType":"uint256","name":"","type":"uint256"}],"stateMutability":"view","type":"function"},{"inputs":[{"internalType":"address","name":"user","type":"address"}],"name":"getTier","outputs":[{"internalType":"uint8","name":"","type":"uint8"}],"stateMutability":"view","type":"function"},{"inputs":[{"internalType":"string","name":"cid","type":"string"}],"name":"linkPFP","outputs":[],"stateMutability":"nonpayable","type":"function"},{"inputs":[],"name":"stake","outputs":[],"stateMutability":"payable","type":"function"},{"inputs":[{"internalType":"uint256","name":"amountWei","type":"uint256"}],"name":"withdraw","outputs":[],"stateMutability":"nonpayable","type":"function"},{"stateMutability":"payable","type":"receive"}],"evm":{"bytecode":{"linkReferences":{},"object":"608060405234801561001057600080fd5b50610b27806100206000396000f3fe60806040526004361061008a5760003560e01c8063b45aae5211610059578063b45aae5214610132578063c2c4c5c114610164578063c4f9870b14610179578063d0ed922b14610199578063f8b2cb4f146101c657600080fd5b80632e1a7d4d1461009e5780633a4b66f1146100be5780636735f80e146100c6578063b375355e146100e657600080fd5b36610099576100976101fc565b005b600080fd5b3480156100aa57600080fd5b506100976100b93660046107bd565b6102e2565b6100976101fc565b3480156100d257600080fd5b506100976100e13660046107d6565b610482565b3480156100f257600080fd5b5061011f610101366004610848565b6001600160a01b031660009081526020819052604090206002015490565b6040519081526020015b60405180910390f35b34801561013e57600080fd5b5061015261014d366004610848565b6104e7565b60405160ff9091168152602001610129565b34801561017057600080fd5b5061009761053f565b34801561018557600080fd5b5061011f610194366004610848565b61063e565b3480156101a557600080fd5b506101b96101b4366004610848565b610695565b60405161012991906108be565b3480156101d257600080fd5b5061011f6101e1366004610848565b6001600160a01b031660009081526020819052604090205490565b6000341161023c5760405162461bcd60e51b81526020600482015260086024820152670616d6f756e743d360c41b60448201526064015b60405180910390fd5b33600090815260208190526040812080549091036102695742600182015560006002820181905560038201555b3481600001600082825461027d91906108e7565b90915550506040805180820190915260058152647374616b6560d81b60208201526102a9903334610744565b60405134815233907f9e71bc8eea02a63969f509818f2dafb9254532904319f9dbda79b67bd34a5f3d906020015b60405180910390a250565b336000908152602081905260409020816103295760405162461bcd60e51b81526020600482015260086024820152670616d6f756e743d360c41b6044820152606401610233565b80548211156103695760405162461bcd60e51b815260206004820152600c60248201526b1a5b9cdd59999a58da595b9d60a21b6044820152606401610233565b8181600001600082825461037d9190610900565b909155506001905060006103944262093a806108e7565b6003840155426001840155600060028401819055336103b383876108e7565b604051600081818185875af1925050503d80600081146103ef576040519150601f19603f3d011682016040523d82523d6000602084013e6103f4565b606091505b50509050806104375760405162461bcd60e51b815260206004820152600f60248201526e1d1c985b9cd9995c8819985a5b1959608a1b6044820152606401610233565b604080518681526020810184905284151581830152905133917f217c645ce2c5eb2497bdb6d9400205f1253e8607b2aea960637fa705f2130401919081900360600190a25050505050565b33600090815260208190526040902060040161049f8284836109b1565b50336001600160a01b03167fc4705fcf0247ab4b7ed112166cf2f0c99b1406fc9314ba28b1590df7445ef50683836040516104db929190610a72565b60405180910390a25050565b6001600160a01b03811660009081526020819052604081206002015460b481106105145750600392915050565b605a81106105255750600292915050565b601e81106105365750600192915050565b50600092915050565b336000908152602081905260408120805490910361055a5750565b80600301544210156105b95742600182015560006002820181905533907f0b6e1266a0a28dc779c8ba52dd440e90f5fa74c2f247dc979f53a4a2fcabe0fa906105a2836104e7565b6040805192835260ff9091166020830152016102d7565b6000620151808260010154426105cf9190610900565b6105d99190610aa1565b9050816002015481146105ee57600282018190555b336001600160a01b03167f0b6e1266a0a28dc779c8ba52dd440e90f5fa74c2f247dc979f53a4a2fcabe0fa8360020154610627336104e7565b6040805192835260ff9091166020830152016104db565b60008061064a836104e7565b90508060ff1660030361066157506103e892915050565b8060ff1660020361067657506102ee92915050565b8060ff1660010361068b575061025892915050565b506101f492915050565b6001600160a01b03811660009081526020819052604090206004018054606091906106bf90610929565b80601f01602080910402602001604051908101604052809291908181526020018280546106eb90610929565b80156107385780601f1061070d57610100808354040283529160200191610738565b820191906000526020600020905b81548152906001019060200180831161071b57829003601f168201915b50505050509050919050565b61078b83838360405160240161075c93929190610ac3565b60408051601f198184030181529190526020810180516001600160e01b0316630d26b92560e01b179052610790565b505050565b6107998161079c565b50565b60006a636f6e736f6c652e6c6f679050600080835160208501845afa505050565b6000602082840312156107cf57600080fd5b5035919050565b600080602083850312156107e957600080fd5b823567ffffffffffffffff8082111561080157600080fd5b818501915085601f83011261081557600080fd5b81358181111561082457600080fd5b86602082850101111561083657600080fd5b60209290920196919550909350505050565b60006020828403121561085a57600080fd5b81356001600160a01b038116811461087157600080fd5b9392505050565b6000815180845260005b8181101561089e57602081850181015186830182015201610882565b506000602082860101526020601f19601f83011685010191505092915050565b6020815260006108716020830184610878565b634e487b7160e01b600052601160045260246000fd5b808201808211156108fa576108fa6108d1565b92915050565b818103818111156108fa576108fa6108d1565b634e487b7160e01b600052604160045260246000fd5b600181811c9082168061093d57607f821691505b60208210810361095d57634e487b7160e01b600052602260045260246000fd5b50919050565b601f82111561078b57600081815260208120601f850160051c8101602086101561098a5750805b601f850160051c820191505b818110156109a957828155600101610996565b505050505050565b67ffffffffffffffff8311156109c9576109c9610913565b6109dd836109d78354610929565b83610963565b6000601f841160018114610a1157600085156109f95750838201355b600019600387901b1c1916600186901b178355610a6b565b600083815260209020601f19861690835b82811015610a425786850135825560209485019460019092019101610a22565b5086821015610a5f5760001960f88860031b161c19848701351681555b505060018560011b0183555b5050505050565b60208152816020820152818360408301376000818301604090810191909152601f909201601f19160101919050565b600082610abe57634e487b7160e01b600052601260045260246000fd5b500490565b606081526000610ad66060830186610878565b6001600160a01b03949094166020830152506040015291905056fea2646970667358221220db0a3cafbfea416d25d95538da6eb0758c76fec3353da74f94f2c2d3443fcf2064736f6c63430008130033","opcodes":"PUSH1 0x80 PUSH1 0x40 MSTORE CALLVALUE DUP1 ISZERO PUSH2 0x10 JUMPI PUSH1 0x0 DUP1 REVERT JUMPDEST POP PUSH2 0xB27 DUP1 PUSH2 0x20 PUSH1 0x0 CODECOPY PUSH1 0x0 RETURN INVALID PUSH1 0x80 PUSH1 0x40 MSTORE PUSH1 0x4 CALLDATASIZE LT PUSH2 0x8A JUMPI PUSH1 0x0 CALLDATALOAD PUSH1 0xE0 SHR DUP1 PUSH4 0xB45AAE52 GT PUSH2 0x59 JUMPI DUP1 PUSH4 0xB45AAE52 EQ PUSH2 0x132 JUMPI DUP1 PUSH4 0xC2C4C5C1 EQ PUSH2 0x164 JUMPI DUP1 PUSH4 0xC4F9870B EQ PUSH2 0x179 JUMPI DUP1 PUSH4 0xD0ED922B EQ PUSH2 0x199 JUMPI DUP1 PUSH4 0xF8B2CB4F EQ PUSH2 0x1C6 JUMPI PUSH1 0x0 DUP1 REVERT JUMPDEST DUP1 PUSH4 0x2E1A7D4D EQ PUSH2 0x9E JUMPI DUP1 PUSH4 0x3A4B66F1 EQ PUSH2 0xBE JUMPI DUP1 PUSH4 0x6735F80E EQ PUSH2 0xC6 JUMPI DUP1 PUSH4 0xB375355E EQ PUSH2 0xE6 JUMPI PUSH1 0x0 DUP1 REVERT JUMPDEST CALLDATASIZE PUSH2 0x99 JUMPI PUSH2 0x97 PUSH2 0x1FC JUMP JUMPDEST STOP JUMPDEST PUSH1 0x0 DUP1 REVERT JUMPDEST CALLVALUE DUP1 ISZERO PUSH2 0xAA JUMPI PUSH1 0x0 DUP1 REVERT JUMPDEST POP PUSH2 0x97 PUSH2 0xB9 CALLDATASIZE PUSH1 0x4 PUSH2 0x7BD JUMP JUMPDEST PUSH2 0x2E2 JUMP JUMPDEST PUSH2 0x97 PUSH2 0x1FC JUMP JUMPDEST CALLVALUE DUP1 ISZERO PUSH2 0xD2 JUMPI PUSH1 0x0 DUP1 REVERT JUMPDEST POP PUSH2 0x97 PUSH2 0xE1 CALLDATASIZE PUSH1 0x4 PUSH2 0x7D6 JUMP JUMPDEST PUSH2 0x482 JUMP JUMPDEST CALLVALUE DUP1 ISZERO PUSH2 0xF2 JUMPI PUSH1 0x0 DUP1 REVERT JUMPDEST POP PUSH2 0x11F PUSH2 0x101 CALLDATASIZE PUSH1 0x4 PUSH2 0x848 JUMP JUMPDEST PUSH1 0x1 PUSH1 0x1 PUSH1 0xA0 SHL SUB AND PUSH1 0x0 SWAP1 DUP2 MSTORE PUSH1 0x20 DUP2 SWAP1 MSTORE PUSH1 0x40 SWAP1 KECCAK256 PUSH1 0x2 ADD SLOAD SWAP1 JUMP JUMPDEST PUSH1 0x40 MLOAD SWAP1 DUP2 MSTORE PUSH1 0x20 ADD JUMPDEST PUSH1 0x40 MLOAD DUP1 SWAP2 SUB SWAP1 RETURN JUMPDEST CALLVALUE DUP1 ISZERO PUSH2 0x13E JUMPI PUSH1 0x0 DUP1 REVERT JUMPDEST POP PUSH2 0x152 PUSH2 0x14D CALLDATASIZE PUSH1 0x4 PUSH2 0x848 JUMP JUMPDEST PUSH2 0x4E7 JUMP JUMPDEST PUSH1 0x40 MLOAD PUSH1 0xFF SWAP1 SWAP2 AND DUP2 MSTORE PUSH1 0x20 ADD PUSH2 0x129 JUMP JUMPDEST CALLVALUE DUP1 ISZERO PUSH2 0x170 JUMPI PUSH1 0x0 DUP1 REVERT JUMPDEST POP PUSH2 0x97 PUSH2 0x53F JUMP JUMPDEST CALLVALUE DUP1 ISZERO PUSH2 0x185 JUMPI PUSH1 0x0 DUP1 REVERT JUMPDEST POP PUSH2 0x11F PUSH2 0x194 CALLDATASIZE PUSH1 0x4 PUSH2 0x848 JUMP JUMPDEST PUSH2 0x63E JUMP JUMPDEST CALLVALUE DUP1 ISZERO PUSH2 0x1A5 JUMPI PUSH1 0x0 DUP1 REVERT JUMPDEST POP PUSH2 0x1B9 PUSH2 0x1B4 CALLDATASIZE PUSH1 0x4 PUSH2 0x848 JUMP JUMPDEST PUSH2 0x695 JUMP JUMPDEST PUSH1 0x40 MLOAD PUSH2 0x129 SWAP2 SWAP1 PUSH2 0x8BE JUMP JUMPDEST CALLVALUE DUP1 ISZERO PUSH2 0x1D2 JUMPI PUSH1 0x0 DUP1 REVERT JUMPDEST POP PUSH2 0x11F PUSH2 0x1E1 CALLDATASIZE PUSH1 0x4 PUSH2 0x848 JUMP JUMPDEST PUSH1 0x1 PUSH1 0x1 PUSH1 0xA0 SHL SUB AND PUSH1 0x0 SWAP1 DUP2 MSTORE PUSH1 0x20 DUP2 SWAP1 MSTORE PUSH1 0x40 SWAP1 KECCAK256 SLOAD SWAP1 JUMP JUMPDEST PUSH1 0x0 CALLVALUE GT PUSH2 0x23C JUMPI PUSH1 0x40 MLOAD PUSH3 0x461BCD PUSH1 0xE5 SHL DUP2 MSTORE PUSH1 0x20 PUSH1 0x4 DUP3 ADD MSTORE PUSH1 0x8 PUSH1 0x24 DUP3 ADD MSTORE PUSH8 0x616D6F756E743D3 PUSH1 0xC4 SHL PUSH1 0x44 DUP3 ADD MSTORE PUSH1 0x64 ADD JUMPDEST PUSH1 0x40 MLOAD DUP1 SWAP2 SUB SWAP1 REVERT JUMPDEST CALLER PUSH1 0x0 SWAP1 DUP2 MSTORE PUSH1 0x20 DUP2 SWAP1 MSTORE PUSH1 0x40 DUP2 KECCAK256 DUP1 SLOAD SWAP1 SWAP2 SUB PUSH2 0x269 JUMPI TIMESTAMP PUSH1 0x1 DUP3 ADD SSTORE PUSH1 0x0 PUSH1 0x2 DUP3 ADD DUP2 SWAP1 SSTORE PUSH1 0x3 DUP3 ADD SSTORE JUMPDEST CALLVALUE DUP2 PUSH1 0x0 ADD PUSH1 0x0 DUP3 DUP3 SLOAD PUSH2 0x27D SWAP2 SWAP1 PUSH2 0x8E7 JUMP JUMPDEST SWAP1 SWAP2 SSTORE POP POP PUSH1 0x40 DUP1 MLOAD DUP1 DUP3 ADD SWAP1 SWAP2 MSTORE PUSH1 0x5 DUP2 MSTORE PUSH5 0x7374616B65 PUSH1 0xD8 SHL PUSH1 0x20 DUP3 ADD MSTORE PUSH2 0x2A9 SWAP1 CALLER CALLVALUE PUSH2 0x744 JUMP JUMPDEST PUSH1 0x40 MLOAD CALLVALUE DUP2 MSTORE CALLER SWAP1 PUSH32 0x9E71BC8EEA02A63969F509818F2DAFB9254532904319F9DBDA79B67BD34A5F3D SWAP1 PUSH1 0x20 ADD JUMPDEST PUSH1 0x40 MLOAD DUP1 SWAP2 SUB SWAP1 LOG2 POP JUMP JUMPDEST CALLER PUSH1 0x0 SWAP1 DUP2 MSTORE PUSH1 0x20 DUP2 SWAP1 MSTORE PUSH1 0x40 SWAP1 KECCAK256 DUP2 PUSH2 0x329 JUMPI PUSH1 0x40 MLOAD PUSH3 0x461BCD PUSH1 0xE5 SHL DUP2 MSTORE PUSH1 0x20 PUSH1 0x4 DUP3 ADD MSTORE PUSH1 0x8 PUSH1 0x24 DUP3 ADD MSTORE PUSH8 0x616D6F756E743D3 PUSH1 0xC4 SHL PUSH1 0x44 DUP3 ADD MSTORE PUSH1 0x64 ADD PUSH2 0x233 JUMP JUMPDEST DUP1 SLOAD DUP3 GT ISZERO PUSH2 0x369 JUMPI PUSH1 0x40 MLOAD PUSH3 0x461BCD PUSH1 0xE5 SHL DUP2 MSTORE PUSH1 0x20 PUSH1 0x4 DUP3 ADD MSTORE PUSH1 0xC PUSH1 0x24 DUP3 ADD MSTORE PUSH12 0x1A5B9CDD59999A58DA595B9D PUSH1 0xA2 SHL PUSH1 0x44 DUP3 ADD MSTORE PUSH1 0x64 ADD PUSH2 0x233 JUMP JUMPDEST DUP2 DUP2 PUSH1 0x0 ADD PUSH1 0x0 DUP3 DUP3 SLOAD PUSH2 0x37D SWAP2 SWAP1 PUSH2 0x900 JUMP JUMPDEST SWAP1 SWAP2 SSTORE POP PUSH1 0x1 SWAP1 POP PUSH1 0x0 PUSH2 0x394 TIMESTAMP PUSH3 0x93A80 PUSH2 0x8E7 JUMP JUMPDEST PUSH1 0x3 DUP5 ADD SSTORE TIMESTAMP PUSH1 0x1 DUP5 ADD SSTORE PUSH1 0x0 PUSH1 0x2 DUP5 ADD DUP2 SWAP1 SSTORE CALLER PUSH2 0x3B3 DUP4 DUP8 PUSH2 0x8E7 JUMP JUMPDEST PUSH1 0x40 MLOAD PUSH1 0x0 DUP2 DUP2 DUP2 DUP6 DUP8 GAS CALL SWAP3 POP POP POP RETURNDATASIZE DUP1 PUSH1 0x0 DUP2 EQ PUSH2 0x3EF JUMPI PUSH1 0x40 MLOAD SWAP2 POP PUSH1 0x1F NOT PUSH1 0x3F RETURNDATASIZE ADD AND DUP3 ADD PUSH1 0x40 MSTORE RETURNDATASIZE DUP3 MSTORE RETURNDATASIZE PUSH1 0x0 PUSH1 0x20 DUP5 ADD RETURNDATACOPY PUSH2 0x3F4 JUMP JUMPDEST PUSH1 0x60 SWAP2 POP JUMPDEST POP POP SWAP1 POP DUP1 PUSH2 0x437 JUMPI PUSH1 0x40 MLOAD PUSH3 0x461BCD PUSH1 0xE5 SHL DUP2 MSTORE PUSH1 0x20 PUSH1 0x4 DUP3 ADD MSTORE PUSH1 0xF PUSH1 0x24 DUP3 ADD MSTORE PUSH15 0x1D1C985B9CD9995C8819985A5B1959 PUSH1 0x8A SHL PUSH1 0x44 DUP3 ADD MSTORE PUSH1 0x64 ADD PUSH2 0x233 JUMP JUMPDEST PUSH1 0x40 DUP1 MLOAD DUP7 DUP2 MSTORE PUSH1 0x20 DUP2 ADD DUP5 SWAP1 MSTORE DUP5 ISZERO ISZERO DUP2 DUP4 ADD MSTORE SWAP1 MLOAD CALLER SWAP2 PUSH32 0x217C645CE2C5EB2497BDB6D9400205F1253E8607B2AEA960637FA705F2130401 SWAP2 SWAP1 DUP2 SWAP1 SUB PUSH1 0x60 ADD SWAP1 LOG2 POP POP POP POP POP JUMP JUMPDEST CALLER PUSH1 0x0 SWAP1 DUP2 MSTORE PUSH1 0x20 DUP2 SWAP1 MSTORE PUSH1 0x40 SWAP1 KECCAK256 PUSH1 0x4 ADD PUSH2 0x49F DUP3 DUP5 DUP4 PUSH2 0x9B1 JUMP JUMPDEST POP CALLER PUSH1 0x1 PUSH1 0x1 PUSH1 0xA0 SHL SUB AND PUSH32 0xC4705FCF0247AB4B7ED112166CF2F0C99B1406FC9314BA28B1590DF7445EF506 DUP4 DUP4 PUSH1 0x40 MLOAD PUSH2 0x4DB SWAP3 SWAP2 SWAP1 PUSH2 0xA72 JUMP JUMPDEST PUSH1 0x40 MLOAD DUP1 SWAP2 SUB SWAP1 LOG2 POP POP JUMP JUMPDEST PUSH1 0x1 PUSH1 0x1 PUSH1 0xA0 SHL SUB DUP2 AND PUSH1 0x0 SWAP1 DUP2 MSTORE PUSH1 0x20 DUP2 SWAP1 MSTORE PUSH1 0x40 DUP2 KECCAK256 PUSH1 0x2 ADD SLOAD PUSH1 0xB4 DUP2 LT PUSH2 0x514 JUMPI POP PUSH1 0x3 SWAP3 SWAP2 POP POP JUMP JUMPDEST PUSH1 0x5A DUP2 LT PUSH2 0x525 JUMPI POP PUSH1 0x2 SWAP3 SWAP2 POP POP JUMP JUMPDEST PUSH1 0x1E DUP2 LT PUSH2 0x536 JUMPI POP PUSH1 0x1 SWAP3 SWAP2 POP POP JUMP JUMPDEST POP PUSH1 0x0 SWAP3 SWAP2 POP POP JUMP JUMPDEST CALLER PUSH1 0x0 SWAP1 DUP2 MSTORE PUSH1 0x20 DUP2 SWAP1 MSTORE PUSH1 0x40 DUP2 KECCAK256 DUP1 SLOAD SWAP1 SWAP2 SUB PUSH2 0x55A JUMPI POP JUMP JUMPDEST DUP1 PUSH1 0x3 ADD SLOAD TIMESTAMP LT ISZERO PUSH2 0x5B9 JUMPI TIMESTAMP PUSH1 0x1 DUP3 ADD SSTORE PUSH1 0x0 PUSH1 0x2 DUP3 ADD DUP2 SWAP1 SSTORE CALLER SWAP1 PUSH32 0xB6E1266A0A28DC779C8BA52DD440E90F5FA74C2F247DC979F53A4A2FCABE0FA SWAP1 PUSH2 0x5A2 DUP4 PUSH2 0x4E7 JUMP JUMPDEST PUSH1 0x40 DUP1 MLOAD SWAP3 DUP4 MSTORE PUSH1 0xFF SWAP1 SWAP2 AND PUSH1 0x20 DUP4 ADD MSTORE ADD PUSH2 0x2D7 JUMP JUMPDEST PUSH1 0x0 PUSH3 0x15180 DUP3 PUSH1 0x1 ADD SLOAD TIMESTAMP PUSH2 0x5CF SWAP2 SWAP1 PUSH2 0x900 JUMP JUMPDEST PUSH2 0x5D9 SWAP2 SWAP1 PUSH2 0xAA1 JUMP JUMPDEST SWAP1 POP DUP2 PUSH1 0x2 ADD SLOAD DUP2 EQ PUSH2 0x5EE JUMPI PUSH1 0x2 DUP3 ADD DUP2 SWAP1 SSTORE JUMPDEST CALLER PUSH1 0x1 PUSH1 0x1 PUSH1 0xA0 SHL SUB AND PUSH32 0xB6E1266A0A28DC779C8BA52DD440E90F5FA74C2F247DC979F53A4A2FCABE0FA DUP4 PUSH1 0x2 ADD SLOAD PUSH2 0x627 CALLER PUSH2 0x4E7 JUMP JUMPDEST PUSH1 0x40 DUP1 MLOAD SWAP3 DUP4 MSTORE PUSH1 0xFF SWAP1 SWAP2 AND PUSH1 0x20 DUP4 ADD MSTORE ADD PUSH2 0x4DB JUMP JUMPDEST PUSH1 0x0 DUP1 PUSH2 0x64A DUP4 PUSH2 0x4E7 JUMP JUMPDEST SWAP1 POP DUP1 PUSH1 0xFF AND PUSH1 0x3 SUB PUSH2 0x661 JUMPI POP PUSH2 0x3E8 SWAP3 SWAP2 POP POP JUMP JUMPDEST DUP1 PUSH1 0xFF AND PUSH1 0x2 SUB PUSH2 0x676 JUMPI POP PUSH2 0x2EE SWAP3 SWAP2 POP POP JUMP JUMPDEST DUP1 PUSH1 0xFF AND PUSH1 0x1 SUB PUSH2 0x68B JUMPI POP PUSH2 0x258 SWAP3 SWAP2 POP POP JUMP JUMPDEST POP PUSH2 0x1F4 SWAP3 SWAP2 POP POP JUMP JUMPDEST PUSH1 0x1 PUSH1 0x1 PUSH1 0xA0 SHL SUB DUP2 AND PUSH1 0x0 SWAP1 DUP2 MSTORE PUSH1 0x20 DUP2 SWAP1 MSTORE PUSH1 0x40 SWAP1 KECCAK256 PUSH1 0x4 ADD DUP1 SLOAD PUSH1 0x60 SWAP2 SWAP1 PUSH2 0x6BF SWAP1 PUSH2 0x929 JUMP JUMPDEST DUP1 PUSH1 0x1F ADD PUSH1 0x20 DUP1 SWAP2 DIV MUL PUSH1 0x20 ADD PUSH1 0x40 MLOAD SWAP1 DUP2 ADD PUSH1 0x40 MSTORE DUP1 SWAP3 SWAP2 SWAP1 DUP2 DUP2 MSTORE PUSH1 0x20 ADD DUP3 DUP1 SLOAD PUSH2 0x6EB SWAP1 PUSH2 0x929 JUMP JUMPDEST DUP1 ISZERO PUSH2 0x738 JUMPI DUP1 PUSH1 0x1F LT PUSH2 0x70D JUMPI PUSH2 0x100 DUP1 DUP4 SLOAD DIV MUL DUP4 MSTORE SWAP2 PUSH1 0x20 ADD SWAP2 PUSH2 0x738 JUMP JUMPDEST DUP3 ADD SWAP2 SWAP1 PUSH1 0x0 MSTORE PUSH1 0x20 PUSH1 0x0 KECCAK256 SWAP1 JUMPDEST DUP2 SLOAD DUP2 MSTORE SWAP1 PUSH1 0x1 ADD SWAP1 PUSH1 0x20 ADD DUP1 DUP4 GT PUSH2 0x71B JUMPI DUP3 SWAP1 SUB PUSH1 0x1F AND DUP3 ADD SWAP2 JUMPDEST POP POP POP POP POP SWAP1 POP SWAP2 SWAP1 POP JUMP JUMPDEST PUSH2 0x78B DUP4 DUP4 DUP4 PUSH1 0x40 MLOAD PUSH1 0x24 ADD PUSH2 0x75C SWAP4 SWAP3 SWAP2 SWAP1 PUSH2 0xAC3 JUMP JUMPDEST PUSH1 0x40 DUP1 MLOAD PUSH1 0x1F NOT DUP2 DUP5 SUB ADD DUP2 MSTORE SWAP2 SWAP1 MSTORE PUSH1 0x20 DUP2 ADD DUP1 MLOAD PUSH1 0x1 PUSH1 0x1 PUSH1 0xE0 SHL SUB AND PUSH4 0xD26B925 PUSH1 0xE0 SHL OR SWAP1 MSTORE PUSH2 0x790 JUMP JUMPDEST POP POP POP JUMP JUMPDEST PUSH2 0x799 DUP2 PUSH2 0x79C JUMP JUMPDEST POP JUMP JUMPDEST PUSH1 0x0 PUSH11 0x636F6E736F6C652E6C6F67 SWAP1 POP PUSH1 0x0 DUP1 DUP4 MLOAD PUSH1 0x20 DUP6 ADD DUP5 GAS STATICCALL POP POP POP JUMP JUMPDEST PUSH1 0x0 PUSH1 0x20 DUP3 DUP5 SUB SLT ISZERO PUSH2 0x7CF JUMPI PUSH1 0x0 DUP1 REVERT JUMPDEST POP CALLDATALOAD SWAP2 SWAP1 POP JUMP JUMPDEST PUSH1 0x0 DUP1 PUSH1 0x20 DUP4 DUP6 SUB SLT ISZERO PUSH2 0x7E9 JUMPI PUSH1 0x0 DUP1 REVERT JUMPDEST DUP3 CALLDATALOAD PUSH8 0xFFFFFFFFFFFFFFFF DUP1 DUP3 GT ISZERO PUSH2 0x801 JUMPI PUSH1 0x0 DUP1 REVERT JUMPDEST DUP2 DUP6 ADD SWAP2 POP DUP6 PUSH1 0x1F DUP4 ADD SLT PUSH2 0x815 JUMPI PUSH1 0x0 DUP1 REVERT JUMPDEST DUP2 CALLDATALOAD DUP2 DUP2 GT ISZERO PUSH2 0x824 JUMPI PUSH1 0x0 DUP1 REVERT JUMPDEST DUP7 PUSH1 0x20 DUP3 DUP6 ADD ADD GT ISZERO PUSH2 0x836 JUMPI PUSH1 0x0 DUP1 REVERT JUMPDEST PUSH1 0x20 SWAP3 SWAP1 SWAP3 ADD SWAP7 SWAP2 SWAP6 POP SWAP1 SWAP4 POP POP POP POP JUMP JUMPDEST PUSH1 0x0 PUSH1 0x20 DUP3 DUP5 SUB SLT ISZERO PUSH2 0x85A JUMPI PUSH1 0x0 DUP1 REVERT JUMPDEST DUP2 CALLDATALOAD PUSH1 0x1 PUSH1 0x1 PUSH1 0xA0 SHL SUB DUP2 AND DUP2 EQ PUSH2 0x871 JUMPI PUSH1 0x0 DUP1 REVERT JUMPDEST SWAP4 SWAP3 POP POP POP JUMP JUMPDEST PUSH1 0x0 DUP2 MLOAD DUP1 DUP5 MSTORE PUSH1 0x0 JUMPDEST DUP2 DUP2 LT ISZERO PUSH2 0x89E JUMPI PUSH1 0x20 DUP2 DUP6 ADD DUP2 ADD MLOAD DUP7 DUP4 ADD DUP3 ADD MSTORE ADD PUSH2 0x882 JUMP JUMPDEST POP PUSH1 0x0 PUSH1 0x20 DUP3 DUP7 ADD ADD MSTORE PUSH1 0x20 PUSH1 0x1F NOT PUSH1 0x1F DUP4 ADD AND DUP6 ADD ADD SWAP2 POP POP SWAP3 SWAP2 POP POP JUMP JUMPDEST PUSH1 0x20 DUP2 MSTORE PUSH1 0x0 PUSH2 0x871 PUSH1 0x20 DUP4 ADD DUP5 PUSH2 0x878 JUMP JUMPDEST PUSH4 0x4E487B71 PUSH1 0xE0 SHL PUSH1 0x0 MSTORE PUSH1 0x11 PUSH1 0x4 MSTORE PUSH1 0x24 PUSH1 0x0 REVERT JUMPDEST DUP1 DUP3 ADD DUP1 DUP3 GT ISZERO PUSH2 0x8FA JUMPI PUSH2 0x8FA PUSH2 0x8D1 JUMP JUMPDEST SWAP3 SWAP2 POP POP JUMP JUMPDEST DUP2 DUP2 SUB DUP2 DUP2 GT ISZERO PUSH2 0x8FA JUMPI PUSH2 0x8FA PUSH2 0x8D1 JUMP JUMPDEST PUSH4 0x4E487B71 PUSH1 0xE0 SHL PUSH1 0x0 MSTORE PUSH1 0x41 PUSH1 0x4 MSTORE PUSH1 0x24 PUSH1 0x0 REVERT JUMPDEST PUSH1 0x1 DUP2 DUP2 SHR SWAP1 DUP3 AND DUP1 PUSH2 0x93D JUMPI PUSH1 0x7F DUP3 AND SWAP2 POP JUMPDEST PUSH1 0x20 DUP3 LT DUP2 SUB PUSH2 0x95D JUMPI PUSH4 0x4E487B71 PUSH1 0xE0 SHL PUSH1 0x0 MSTORE PUSH1 0x22 PUSH1 0x4 MSTORE PUSH1 0x24 PUSH1 0x0 REVERT JUMPDEST POP SWAP2 SWAP1 POP JUMP JUMPDEST PUSH1 0x1F DUP3 GT ISZERO PUSH2 0x78B JUMPI PUSH1 0x0 DUP2 DUP2 MSTORE PUSH1 0x20 DUP2 KECCAK256 PUSH1 0x1F DUP6 ADD PUSH1 0x5 SHR DUP2 ADD PUSH1 0x20 DUP7 LT ISZERO PUSH2 0x98A JUMPI POP DUP1 JUMPDEST PUSH1 0x1F DUP6 ADD PUSH1 0x5 SHR DUP3 ADD SWAP2 POP JUMPDEST DUP2 DUP2 LT ISZERO PUSH2 0x9A9 JUMPI DUP3 DUP2 SSTORE PUSH1 0x1 ADD PUSH2 0x996 JUMP JUMPDEST POP POP POP POP POP POP JUMP JUMPDEST PUSH8 0xFFFFFFFFFFFFFFFF DUP4 GT ISZERO PUSH2 0x9C9 JUMPI PUSH2 0x9C9 PUSH2 0x913 JUMP JUMPDEST PUSH2 0x9DD DUP4 PUSH2 0x9D7 DUP4 SLOAD PUSH2 0x929 JUMP JUMPDEST DUP4 PUSH2 0x963 JUMP JUMPDEST PUSH1 0x0 PUSH1 0x1F DUP5 GT PUSH1 0x1 DUP2 EQ PUSH2 0xA11 JUMPI PUSH1 0x0 DUP6 ISZERO PUSH2 0x9F9 JUMPI POP DUP4 DUP3 ADD CALLDATALOAD JUMPDEST PUSH1 0x0 NOT PUSH1 0x3 DUP8 SWAP1 SHL SHR NOT AND PUSH1 0x1 DUP7 SWAP1 SHL OR DUP4 SSTORE PUSH2 0xA6B JUMP JUMPDEST PUSH1 0x0 DUP4 DUP2 MSTORE PUSH1 0x20 SWAP1 KECCAK256 PUSH1 0x1F NOT DUP7 AND SWAP1 DUP4 JUMPDEST DUP3 DUP2 LT ISZERO PUSH2 0xA42 JUMPI DUP7 DUP6 ADD CALLDATALOAD DUP3 SSTORE PUSH1 0x20 SWAP5 DUP6 ADD SWAP5 PUSH1 0x1 SWAP1 SWAP3 ADD SWAP2 ADD PUSH2 0xA22 JUMP JUMPDEST POP DUP7 DUP3 LT ISZERO PUSH2 0xA5F JUMPI PUSH1 0x0 NOT PUSH1 0xF8 DUP9 PUSH1 0x3 SHL AND SHR NOT DUP5 DUP8 ADD CALLDATALOAD AND DUP2 SSTORE JUMPDEST POP POP PUSH1 0x1 DUP6 PUSH1 0x1 SHL ADD DUP4 SSTORE JUMPDEST POP POP POP POP POP JUMP JUMPDEST PUSH1 0x20 DUP2 MSTORE DUP2 PUSH1 0x20 DUP3 ADD MSTORE DUP2 DUP4 PUSH1 0x40 DUP4 ADD CALLDATACOPY PUSH1 0x0 DUP2 DUP4 ADD PUSH1 0x40 SWAP1 DUP2 ADD SWAP2 SWAP1 SWAP2 MSTORE PUSH1 0x1F SWAP1 SWAP3 ADD PUSH1 0x1F NOT AND ADD ADD SWAP2 SWAP1 POP JUMP JUMPDEST PUSH1 0x0 DUP3 PUSH2 0xABE JUMPI PUSH4 0x4E487B71 PUSH1 0xE0 SHL PUSH1 0x0 MSTORE PUSH1 0x12 PUSH1 0x4 MSTORE PUSH1 0x24 PUSH1 0x0 REVERT JUMPDEST POP DIV SWAP1 JUMP JUMPDEST PUSH1 0x60 DUP2 MSTORE PUSH1 0x0 PUSH2 0xAD6 PUSH1 0x60 DUP4 ADD DUP7 PUSH2 0x878 JUMP JUMPDEST PUSH1 0x1 PUSH1 0x1 PUSH1 0xA0 SHL SUB SWAP5 SWAP1 SWAP5 AND PUSH1 0x20 DUP4 ADD MSTORE POP PUSH1 0x40 ADD MSTORE SWAP2 SWAP1 POP JUMP INVALID LOG2 PUSH5 0x6970667358 0x22 SLT KECCAK256 0xDB EXP EXTCODECOPY 0xAF 0xBF 0xEA COINBASE PUSH14 0x25D95538DA6EB0758C76FEC3353D 0xA7 0x4F SWAP5 CALLCODE 0xC2 0xD3 PREVRANDAO EXTCODEHASH 0xCF KECCAK256 PUSH5 0x736F6C6343 STOP ADDMOD SGT STOP CALLER "},"methodIdentifiers":{"checkpoint()":"c2c4c5c1","getAPY(address)":"c4f9870b","getBalance(address)":"f8b2cb4f","getPFP(address)":"d0ed922b","getStreakDays(address)":"b375355e","getTier(address)":"b45aae52","linkPFP(string)":"6735f80e","stake()":"3a4b66f1","withdraw(uint256)":"2e1a7d4d"}}}}}