{
  "_format": "hh3-artifact-1",
  "contractName": "KizunaPool",
  "sourceName": "contracts/contracts/KizunaPool.sol",
  "abi": [
    {
      "anonymous": false,
      "inputs": [
        {
          "indexed": true,
          "internalType": "uint256",
          "name": "poolId",
          "type": "uint256"
        },
        {
          "indexed": true,
          "internalType": "address",
          "name": "member",
          "type": "address"
        },
        {
          "indexed": false,
          "internalType": "uint256",
          "name": "dayIndex",
          "type": "uint256"
        }
      ],
      "name": "CheckedIn",
      "type": "event"
    },
    {
      "anonymous": false,
      "inputs": [
        {
          "indexed": true,
          "internalType": "uint256",
          "name": "poolId",
          "type": "uint256"
        },
        {
          "indexed": true,
          "internalType": "address",
          "name": "member",
          "type": "address"
        }
      ],
      "name": "Joined",
      "type": "event"
    },
    {
      "anonymous": false,
      "inputs": [
        {
          "indexed": true,
          "internalType": "uint256",
          "name": "poolId",
          "type": "uint256"
        },
        {
          "indexed": false,
          "internalType": "string",
          "name": "name",
          "type": "string"
        },
        {
          "indexed": false,
          "internalType": "uint256",
          "name": "stakeAmount",
          "type": "uint256"
        },
        {
          "indexed": true,
          "internalType": "address",
          "name": "creator",
          "type": "address"
        }
      ],
      "name": "PoolCreated",
      "type": "event"
    },
    {
      "anonymous": false,
      "inputs": [
        {
          "indexed": true,
          "internalType": "uint256",
          "name": "poolId",
          "type": "uint256"
        },
        {
          "indexed": false,
          "internalType": "bool",
          "name": "yieldHitApplied",
          "type": "bool"
        }
      ],
      "name": "RewardsDistributed",
      "type": "event"
    },
    {
      "inputs": [
        {
          "internalType": "uint256",
          "name": "poolId",
          "type": "uint256"
        }
      ],
      "name": "checkIn",
      "outputs": [],
      "stateMutability": "nonpayable",
      "type": "function"
    },
    {
      "inputs": [
        {
          "internalType": "string",
          "name": "name",
          "type": "string"
        },
        {
          "internalType": "uint256",
          "name": "stakeAmount",
          "type": "uint256"
        },
        {
          "internalType": "address[]",
          "name": "initialMembers",
          "type": "address[]"
        }
      ],
      "name": "createPool",
      "outputs": [
        {
          "internalType": "uint256",
          "name": "",
          "type": "uint256"
        }
      ],
      "stateMutability": "nonpayable",
      "type": "function"
    },
    {
      "inputs": [
        {
          "internalType": "uint256",
          "name": "poolId",
          "type": "uint256"
        }
      ],
      "name": "distributeRewards",
      "outputs": [],
      "stateMutability": "nonpayable",
      "type": "function"
    },
    {
      "inputs": [
        {
          "internalType": "uint256",
          "name": "poolId",
          "type": "uint256"
        }
      ],
      "name": "getMembers",
      "outputs": [
        {
          "internalType": "address[]",
          "name": "",
          "type": "address[]"
        }
      ],
      "stateMutability": "view",
      "type": "function"
    },
    {
      "inputs": [
        {
          "internalType": "uint256",
          "name": "",
          "type": "uint256"
        },
        {
          "internalType": "address",
          "name": "",
          "type": "address"
        }
      ],
      "name": "isMember",
      "outputs": [
        {
          "internalType": "bool",
          "name": "",
          "type": "bool"
        }
      ],
      "stateMutability": "view",
      "type": "function"
    },
    {
      "inputs": [
        {
          "internalType": "uint256",
          "name": "poolId",
          "type": "uint256"
        }
      ],
      "name": "joinPool",
      "outputs": [],
      "stateMutability": "payable",
      "type": "function"
    },
    {
      "inputs": [
        {
          "internalType": "uint256",
          "name": "",
          "type": "uint256"
        },
        {
          "internalType": "address",
          "name": "",
          "type": "address"
        }
      ],
      "name": "lastCheckinDay",
      "outputs": [
        {
          "internalType": "uint256",
          "name": "",
          "type": "uint256"
        }
      ],
      "stateMutability": "view",
      "type": "function"
    },
    {
      "inputs": [],
      "name": "nextPoolId",
      "outputs": [
        {
          "internalType": "uint256",
          "name": "",
          "type": "uint256"
        }
      ],
      "stateMutability": "view",
      "type": "function"
    },
    {
      "inputs": [
        {
          "internalType": "uint256",
          "name": "",
          "type": "uint256"
        }
      ],
      "name": "pools",
      "outputs": [
        {
          "internalType": "string",
          "name": "name",
          "type": "string"
        },
        {
          "internalType": "uint256",
          "name": "stakeAmount",
          "type": "uint256"
        },
        {
          "internalType": "address",
          "name": "creator",
          "type": "address"
        },
        {
          "internalType": "uint256",
          "name": "startTs",
          "type": "uint256"
        },
        {
          "internalType": "uint256",
          "name": "periodDays",
          "type": "uint256"
        },
        {
          "internalType": "bool",
          "name": "active",
          "type": "bool"
        }
      ],
      "stateMutability": "view",
      "type": "function"
    }
  ],
  "bytecode": "0x6080604052600160005534801561001557600080fd5b50610dd7806100256000396000f3fe6080604052600436106100865760003560e01c80637d9e10f5116100595780637d9e10f5146101215780638a6671cd1461016c578063ac4afa381461018c578063c477ecab146101be578063e95a644f146101eb57600080fd5b8063045d94711461008b57806318e56131146100d657806334e7a19f146100ec57806359974e3814610101575b600080fd5b34801561009757600080fd5b506100c36100a6366004610945565b600360209081526000928352604080842090915290825290205481565b6040519081526020015b60405180910390f35b3480156100e257600080fd5b506100c360005481565b6100ff6100fa366004610971565b61020b565b005b34801561010d57600080fd5b506100ff61011c366004610971565b610315565b34801561012d57600080fd5b5061015c61013c366004610945565b600260209081526000928352604080842090915290825290205460ff1681565b60405190151581526020016100cd565b34801561017857600080fd5b506100c361018736600461098a565b610480565b34801561019857600080fd5b506101ac6101a7366004610971565b610609565b6040516100cd96959493929190610a5c565b3480156101ca57600080fd5b506101de6101d9366004610971565b6106d3565b6040516100cd9190610ae4565b3480156101f757600080fd5b506100ff610206366004610971565b610742565b6000818152600160205260409020600681015460ff166102465760405162461bcd60e51b815260040161023d90610b31565b60405180910390fd5b600082815260026020908152604080832033845290915290205460ff161561029a5760405162461bcd60e51b8152602060048201526007602482015266616c726561647960c81b604482015260640161023d565b806001015434146102da5760405162461bcd60e51b815260206004820152600a60248201526918985917d85b5bdd5b9d60b21b604482015260640161023d565b6102e4823361089b565b604051339083907fc0081eeafa0d002abcd7d58d84b6e688d1526b9c3d915a282212ba08c49a17a790600090a35050565b6000818152600160205260409020600681015460ff166103475760405162461bcd60e51b815260040161023d90610b31565b60028101546001600160a01b031633146103925760405162461bcd60e51b815260206004820152600c60248201526b37b7363cafb1b932b0ba37b960a11b604482015260640161023d565b600080620151808360040154426103a99190610b69565b6103b39190610b82565b905060005b600384015481101561043d5760008460030182815481106103db576103db610ba4565b60009182526020808320909101548883526003825260408084206001600160a01b0390921680855291909252912054909150839061041a906001610bba565b101561042a57600193505061043d565b508061043581610bcd565b9150506103b8565b50837fa8a73c4e36547e997d3a0718e82c0c1de4e2359d5520d9367ba36e9214ee440b83604051610472911515815260200190565b60405180910390a250505050565b60008084116104bb5760405162461bcd60e51b815260206004820152600760248201526607374616b653d360cc1b604482015260640161023d565b6000805481806104ca83610bcd565b909155506000818152600160205260409020909150806104eb888a83610c85565b5060018082018790556002820180546001600160a01b03191633908117909155426004840155601e600584015560068301805460ff191690921790915561053390839061089b565b60005b848110156105b757600086868381811061055257610552610ba4565b90506020020160208101906105679190610d46565b6001600160a01b0316146105a5576105a58387878481811061058b5761058b610ba4565b90506020020160208101906105a09190610d46565b61089b565b806105af81610bcd565b915050610536565b50336001600160a01b0316827f87d5629b041f77031582931d81a784d7d99acf00b21d0bee6b6d88f219ca68af8a8a8a6040516105f693929190610d68565b60405180910390a3509695505050505050565b60016020526000908152604090208054819061062490610bfc565b80601f016020809104026020016040519081016040528092919081815260200182805461065090610bfc565b801561069d5780601f106106725761010080835404028352916020019161069d565b820191906000526020600020905b81548152906001019060200180831161068057829003601f168201915b5050506001840154600285015460048601546005870154600690970154959692956001600160a01b039092169450925060ff1686565b60008181526001602090815260409182902060030180548351818402810184019094528084526060939283018282801561073657602002820191906000526020600020905b81546001600160a01b03168152600190910190602001808311610718575b50505050509050919050565b6000818152600160205260409020600681015460ff166107745760405162461bcd60e51b815260040161023d90610b31565b600082815260026020908152604080832033845290915290205460ff166107ca5760405162461bcd60e51b815260206004820152600a6024820152693737ba2fb6b2b6b132b960b11b604482015260640161023d565b6000620151808260040154426107e09190610b69565b6107ea9190610b82565b60008481526003602090815260408083203384529091529020549091508190036108465760405162461bcd60e51b815260206004820152600d60248201526c616c72656164795f746f64617960981b604482015260640161023d565b600083815260036020908152604080832033808552908352928190208490555183815285917f6b2e4e52ba8b5cff4a90d18b1efd0f88c74ed562b5dd3b13f01a1759699b2db2910160405180910390a3505050565b60008281526002602090815260408083206001600160a01b038516845290915290205460ff16156108ca575050565b60008281526002602090815260408083206001600160a01b03909416808452938252808320805460ff191660019081179091559483528482528220600301805494850181558252902090910180546001600160a01b0319169091179055565b80356001600160a01b038116811461094057600080fd5b919050565b6000806040838503121561095857600080fd5b8235915061096860208401610929565b90509250929050565b60006020828403121561098357600080fd5b5035919050565b6000806000806000606086880312156109a257600080fd5b853567ffffffffffffffff808211156109ba57600080fd5b818801915088601f8301126109ce57600080fd5b8135818111156109dd57600080fd5b8960208285010111156109ef57600080fd5b60209283019750955090870135935060408701359080821115610a1157600080fd5b818801915088601f830112610a2557600080fd5b813581811115610a3457600080fd5b8960208260051b8501011115610a4957600080fd5b9699959850939650602001949392505050565b60c08152600087518060c084015260005b81811015610a8a576020818b0181015160e0868401015201610a6d565b50600060e0828501015260e0601f19601f830116840101915050866020830152610abf60408301876001600160a01b03169052565b846060830152836080830152610ad960a083018415159052565b979650505050505050565b6020808252825182820181905260009190848201906040850190845b81811015610b255783516001600160a01b031683529284019291840191600101610b00565b50909695505050505050565b602080825260089082015267696e61637469766560c01b604082015260600190565b634e487b7160e01b600052601160045260246000fd5b81810381811115610b7c57610b7c610b53565b92915050565b600082610b9f57634e487b7160e01b600052601260045260246000fd5b500490565b634e487b7160e01b600052603260045260246000fd5b80820180821115610b7c57610b7c610b53565b600060018201610bdf57610bdf610b53565b5060010190565b634e487b7160e01b600052604160045260246000fd5b600181811c90821680610c1057607f821691505b602082108103610c3057634e487b7160e01b600052602260045260246000fd5b50919050565b601f821115610c8057600081815260208120601f850160051c81016020861015610c5d5750805b601f850160051c820191505b81811015610c7c57828155600101610c69565b5050505b505050565b67ffffffffffffffff831115610c9d57610c9d610be6565b610cb183610cab8354610bfc565b83610c36565b6000601f841160018114610ce55760008515610ccd5750838201355b600019600387901b1c1916600186901b178355610d3f565b600083815260209020601f19861690835b82811015610d165786850135825560209485019460019092019101610cf6565b5086821015610d335760001960f88860031b161c19848701351681555b505060018560011b0183555b5050505050565b600060208284031215610d5857600080fd5b610d6182610929565b9392505050565b604081528260408201528284606083013760006060848301015260006060601f19601f860116830101905082602083015294935050505056fea26469706673582212207e85f1d985d918474536fa9ca19387a3f9a393d2ca5f91a5af4149f0851a08d964736f6c63430008130033",
  "linkReferences": {},
  "deployedLinkReferences": {},
  "immutableReferences": {},
  "inputSourceName": "project/contracts/contracts/KizunaPool.sol",
  "buildInfoId": "solc-0_8_19-ab8200769595691e8356ab746e3076bca52471da"
}